:100000005DEF00F00000000000EF00F000000000D5
:0C001000000000000000000047EF00F0BE
:10001C00B10ECD6E0B0ECF6EDC0ECE6E9E90CD80E3
:04002C00D59E12004B
:10003000040ED56E0B0ED76EDC0ED66EF294D58EF6
:04004000CD9012004D
:100044000F0EC112956A836AF2949E9093809382F4
:1000540093849590959295949596839083928394A6
:100064008396D08EF28CF28EF1949F90F090F09261
:0A007400F086F088F18AF18812008E
:10007E000900F5CFE6FF0006FBE10106F9E11200EB
:10008E00156ED8CF16F0E0CF17F0186A196AF0A2E5
:10009E0002D0F092C6DFF0A002D0F090B8DF175079
:0C00AE00E06E1650D86E153A15381000A0
:1000BA00186A196AC2DF9EA00ED0800E1918006E47
:1000CA00800E005C02E1090E185C02E3186A196AE4
:1000DA00184A192A9EDFF2A40ED0800E1918006E53
:1000EA00800E005C02E1090E185C02E3186A196AC4
:1000FA00184A192A98DF1ED07E0E836E57D0300E0A
:10010A00836E54D06D0E836E51D0790E836E4ED0AD
:10011A00330E836E4BD05B0E836E48D05F0E836EB8
:10012A0045D0700E836E42D07F0E836E3FD07B0E19
:10013A00836E3CD0000E191802E1000E1818DCE09C
:10014A00000E191802E1010E1818D9E0000E19184C
:10015A0002E1020E1818D6E0000E191802E1030E89
:10016A001818D3E0000E191802E1040E1818D0E08E
:10017A00000E191802E1050E1818CDE0000E191824
:10018A0002E1060E1818CAE0000E191802E1070E5D
:10019A001818C7E0000E191802E1080E1818C4E072
:1001AA00000E191802E1090E1818C1E084D7FFD70A
:020000040030CA
:0E000000000C1F1EFF8381FF0FC00FE00F409A
:00000001FF
