:1000000055EF00F0000000003CEF00F000000000A1
:0C001000000000000000000043EF00F0C2
:10001C00B10ECD6E0B0ECF6EDC0ECE6E9E90CD80E3
:04002C00D59E12004B
:10003000040ED56E0B0ED76EDC0ED66EF294D58EF6
:04004000CD9012004D
:100044000F013B6B396B956A836AF2949E9093809F
:1000540093829590959295949596839083928394A8
:04006400839612006D
:100068000900F5CFE6FF0006FBE10106F9E1120001
:0E007800186A196AF2A202D0F292CCDF1100CF
:10008600156ED8CF16F0E0CF17F0186A196AF2A2EB
:1000960002D0F292CADF1750E06E1650D86E153AAB
:0400A60015381000F9
:1000AA00186A196ACADF9EA00ED0800E1918006E4F
:1000BA00800E005C02E1090E185C02E3186A196AF4
:1000CA00184A192AA6DFF2A40ED0800E1918006E5B
:1000DA00800E005C02E1090E185C02E3186A196AD4
:1000EA00184A192AA0DF1DD0836A57D0010E836EE1
:1000FA0054D0020E836E51D0030E836E4ED0040E7E
:10010A00836E4BD0050E836E48D0060E836E45D0A3
:10011A00070E836E42D0080E836E3FD0090E836E9F
:10012A003CD0000E191802E1000E1818DDE0000E8E
:10013A00191802E1010E1818D9E0000E191802E187
:10014A00020E1818D6E0000E191802E1030E18184C
:10015A00D3E0000E191802E1040E1818D0E0000EC0
:10016A00191802E1050E1818CDE0000E191802E15F
:10017A00060E1818CAE0000E191802E1070E181820
:10018A00C7E0000E191802E1080E1818C4E0000EA4
:0E019A00191802E1090E1818C1E085D7FFD729
:020000040030CA
:0D000100231F3CFFBF81FF0FC00FE00F4029
:00000001FF
