:10000000C9EF03F00000000000EF00F00000000066
:0A0010000000000000000000F3D71C
:06001C00000000001200CC
:100022000F0E0C6E470E0D6E0D2EFED70C2EFCD74A
:06003200000000001200B6
:0A003800210E0D6E0D2EFED71200F2
:080042000AAE029E000E12003E
:10004A0057BE02D08A9601D08A8657BC02D08A94BB
:10005A0001D08A8457BA02D08A9201D08A8257B8CC
:10006A0002D08A9001D08A802EB002D08A8801D02C
:10007A008A988A8ACEDF8A9A57B602D08A9601D09F
:10008A008A8657B402D08A9401D08A8457B202D0A1
:10009A008A9201D08A8257B002D08A9001D08A808F
:1000AA002EB002D08A8801D08A988A8AB2DF8A9AC8
:0C00BA002EA002D0B1DF01D0BADF12008E
:0E00C600026A016A006A086A036A000E1200EC
:1000D4000B840BAE75EF00F0010E036E026A016A29
:0A00E400006A0A360232FF0E120015
:1000EE000C6A0E6A0250D8A490EF00F001C002F024
:1000FE0000C001F0006A0E860250D8A490EF00F006
:10010E0001C002F0016A0E960E880250D8B4A2EF1A
:10011E0000F00E50035ED8A4D8A0A7EF00F0D89040
:10012E0002BEACEF00F0003601360236032E97EF1A
:10013E0000F0A7EF00F0010E0C6EBEDFAFEF00F087
:10014E00020E0C6EC0DFAFEF00F0040E0C6E72DF0D
:02015E0012008D
:100160000B800BAEBCEF00F0026A0AAEFF0E026E0F
:0C017000016E006E0A360232FF0E120013
:0C017C000E0E0D6E0D2EFED700001200BE
:100188000B820BAECEEF00F00368026801680068CE
:080198000A360232FF0E1200CC
:0801A0000B6A0B86FF0E120032
:0C01A8002E9056C057F04DDF2E80120044
:1001B400FF0E2F6EFF0E306EFF0E316EFF0E326E8D
:1001C400C26A2D1C006E0050C116070EC012C08EEC
:0401D400C2801200D3
:1001D8000900F5CFE6FF0006FBE10106F9E1120090
:1001E800939A939893909392939493968A9A8A98D1
:1001F8008A968A948A928A9010DF0FDF0EDF8A82AD
:100208008A808A8A07DF8A9A08DF8A8A03DF8A9ABD
:1002180004DF8A8AFFDE8A9A00DF8A908A8AFADEF9
:100228008A9AFBDE8A8AF6DE8A9A8A928A868A8A7D
:10023800F1DE8A9AF2DE8A968A808A8AEBDE8A9AC8
:100248008A908A8AE7DE8A9AE8DE8A8AE3DE8A9AD0
:100258008A808A8ADFDE8A9AE0DE8A908A8ADADEF3
:100268008A9A8A868A848A828A808A8AD3DE8A9A45
:06027800D4DE2E8012000E
:10027E000FD0800E516E19D0C00E516E16D0940E46
:10028E00516E13D0D40E516E10D0800E516E0DD013
:10029E005150010AEEE05150020AEEE05150030AAD
:1002AE00EEE05150040AEEE0F0D75204006E5150C9
:1002BE00002600C051F000C057F0C0DE2E90556AE7
:1002CE0055505324E96E000E5420EA6EEE520BE0A8
:1002DE0055505324E96E000E5420EA6EEECF56F0C0
:0A02EE005CDF552AEDD72E801200C8
:1002F8000B6A0C6A0A6A0350D8B4C6EF01F0028E82
:100308008E0E035E03BE8EEF01F0D8B48EEF01F0BF
:10031800CAEF01F0036C080E035CD8A0A5EF01F04A
:10032800036E013602C001F0026A080E035CD8A011
:10033800A5EF01F00136016A0350D8A4D890AFEFB9
:1003480001F00350D8B4AFEF01F0D8900232013277
:10035800032EA9EF01F00BBC01A0BCEF01F0D8A05F
:10036800BCEF01F0012AD8B4022A02BED9EF01F08D
:100378000AAEDEEF01F0021E011E012AD8B4022ADD
:10038800DEEF01F0026A016ADEEF01F00B800BAECE
:10039800E2EF01F0026A0AAEE2EF01F0FF0E026E30
:1003A800016E0A360232E2EF01F0010E0C6ED4DE65
:1003B800E4EF01F0000E0C6EE4EF01F0FF0E0C6E9E
:0A03C8000150006E0250016E120099
:1003D200086A096A000E076203646EEF02F00250B7
:1003E20006180A6E075003267E0ED8A0FFEF01F012
:1003F200035ED8B072EF02F003EF02F0035ED8A002
:1004020076EF02F0028E068E02C00EF001C00BF0F3
:1004120000C00DF000500402F4CF0CF001500502B0
:10042200F4CF00F0F3CF08F00402F3500C26F4509E
:100432000822000E00220D500502F3500C26F45043
:100442000822000E002202500402F3500826F45043
:10045200002202500502016A000E0122F35000261A
:10046200F45001220D500602F3500826F4500022E7
:10047200026A000E012202220B500602F3500026ED
:10048200F4500122000E02220E500602F350012601
:10049200F450022202BE56EF02F008360036013650
:1004A20002360306D8B476EF02F069EF02F0D88084
:1004B200800E08640030000E002201220222D8A021
:1004C20069EF02F0023201320032034A72EF02F0A7
:1004D2000AAE029E000E78EF02F0010EF3DD78EF15
:1004E20002F0020E50DE78EF02F0040EF2DD12008E
:1004F2000B6A0A6A096A00500402F4CF09F0F3CFCA
:1005020008F001500502F4CF0BF0F3CF0AF00050CF
:100512000502F3500926F4500A22E86A0B22015020
:100522000402F3500926F4500A22E86A0B2208C09A
:1005320000F009C001F00AC002F00BC003F0120083
:10054200086A096A100E0C6E013408360936045026
:10055200085E0550D8A0053C095ED8B007D004500B
:1005620008260550D8B0053C0926D8900036013639
:060572000C2EEAD7120076
:1005780000C008F00150006E016A026A036A0B6A43
:100588000C6A016A026A036A960E036E0A6A00AE72
:10059800D4EF02F0081E001E082AD8B4002A0A8EDA
:1005A80000C001F008C000F0086A026A9CDD120071
:1005B800C26A2D1C006E0050C116070EC012C08EF4
:1005C80051C000F000360090003600900050C21272
:1005D800C280D0DDC282C2A201D0FDD7C4CF01F053
:0E05E800006AC3500012000E0112C2901200F1
:1005F6000050086E0150006E016A026A036A0B6AB7
:100606000C6A960E036E0A6A00C001F008C000F07C
:08061600086A026A69DD1200A6
:10061E000450000A12E10550000A0FE10650000ACC
:10062E000CE10750000A09E1FF0E006EFF0E016E8D
:10063E007F0E026EFF0E036EA4D0086A096A075081
:10064E00D8B4BAEF03F00350D8B4BEEF03F00250A3
:10065E0006180A6E028E068E0E6A02C008F001C0DF
:10066E000CF000C00DF004500D5E0550D8A0053CF6
:10067E000C5E0650D8A0063C085E086A0C6A0D6A2D
:10068E00D8A051EF03F0D890023201320032083276
:10069E00010E0E6E0750035ED8A05EEF03F07E0EC5
:1006AE000E240326D8B0C2EF03F064EF03F07E0EE3
:1006BE000E240326D8A0C6EF03F0180E0B6E0D36CF
:1006CE000C3608360036013602360E360450005E01
:1006DE000550D8A0053C015E0650D8A0063C025E2F
:1006EE0006340E120EA07FEF03F00D808AEF03F09A
:1006FE00045000260550D8B0053C01260650D8B04F
:10070E00062802260D900B2E66EF03F0B0EF03F0D5
:10071E00D8900036013602360E360450005E055073
:10072E00D8A0053C015E0650D8A0063C025E0634F9
:10073E000E10010B0D26D8B00C2AD8B4082AD8A456
:10074E00B0EF03F008320C320D32032AD8B4C2EFE8
:10075E0003F00AAE089E0850026E0C50016E0D504A
:10076E00006EC8EF03F0010E14DDC8EF03F0020EA9
:10077E00A3DCC8EF03F0040E00DDC8EF03F0080E93
:04078E00A2DC1200D7
:10079200FEEC04F0F40E476E010E486EE70E496E51
:1007A200030E4A6E92809282928492861B0EC16ED2
:1007B20000DD19DD010E576E47DC0C0E576E44DC6E
:1007C200010E516E060E526E210E536E000E546EC5
:1007D20055DD020E516E060E526E150E536E000E50
:1007E200546E4CDD516AE7DE00C04FF001C050F09C
:1007F20047C000F048C001F0BEDE000E046EC00E1D
:10080200056E7F0E066E880E076E08DF00C04BF085
:1008120001C04CF002C04DF003C04EF04FC000F0DA
:1008220050C001F0E7DE4BC004F04CC005F04DC0F3
:1008320006F04EC007F0CCDD5EDD00C04BF001C01B
:100842004CF0640E046E000E056E4BC000F04CC0FE
:1008520001F076DE0A0E046E000E056E71DE08C02F
:1008620000F009C001F0300E002600C033F02E0E59
:10087200346E0A0E046E000E056E4BC000F04CC0C2
:1008820001F05EDE0A0E046E000E056E59DE08C02F
:1008920000F009C001F0300E0024356E0A0E046E1D
:1008A200000E056E4BC000F04CC001F049DE08C0DE
:1008B20000F009C001F0300E0024366E376A010ED6
:1008C200516E010E526E330E536E000E546ED6DC14
:1008D200010E516E70DE050E046E000E056E08DE0E
:1008E20000C04FF001C050F049C000F04AC001F012
:1008F20042DE000E046EC00E056E7F0E066E880E7E
:10090200076E8CDE00C04BF001C04CF002C04DF00F
:1009120003C04EF04FC000F050C001F06BDE4BC080
:1009220004F04CC005F04DC006F04EC007F050DD9B
:10093200E2DC00C04BF001C04CF0640E046E000E0D
:10094200056E4BC000F04CC001F0FADD0A0E046ED9
:10095200000E056EF5DD08C000F009C001F0300E92
:10096200002600C03DF00A0E046E000E056E4BC05C
:1009720000F04CC001F0E4DD0A0E046E000E056EBC
:10098200DFDD08C000F009C001F0300E00243E6E29
:100992002E0E3F6E0A0E046E000E056E4BC000F066
:1009A2004CC001F0CDDD08C000F009C001F0300EEE
:1009B2000024406E416A020E516E010E526E3D0ECF
:1009C200536E000E546E5ADC340E0C6EF10E0D6E28
:1009D2000D2EFED70C2EFCD70000000003D7FFD748
:1009FC0010EE15F0190E006E010E016EE20EF66E81
:0E0A0C00090EF76E000EF86EECEC00F0120012
:0C09E20020432020202020202020200086
:0C09EE0020562020202020202020200067
:0109FA0030CC
:020000040030CA
:0E000000000C1F1EFF8381FF0FC00FE00F409A
:00000001FF
