:10000000A1EF03F00000000000EF00F0000000008E
:0A0010000000000000000000F3D71C
:06001C00000000001200CC
:0A002200210E0D6E0D2EFED7120008
:10002C000F0E0C6E470E0D6E0D2EFED70C2EFCD740
:06003C00000000001200AC
:100042000B840BAE2CEF00F0010E036E026A016A04
:0A005200006A0A360232FF0E1200A7
:08005C000AAE029E000E120024
:100064005BBE02D08A9601D08A865BBC02D08A9499
:1000740001D08A845BBA02D08A9201D08A825BB8AA
:1000840002D08A9001D08A802EB002D08A8801D012
:100094008A988A8AC1DF8A9A5BB602D08A9601D08E
:1000A4008A865BB402D08A9401D08A845BB202D07F
:1000B4008A9201D08A825BB002D08A9001D08A8071
:1000C4002EB002D08A8801D08A988A8AA5DF8A9ABB
:0C00D4002EA002D0A9DF01D0A2DF120094
:0E00E000026A016A006A086A036A000E1200D2
:0C00EE000E0E0D6E0D2EFED7000012004D
:1000FA000C6A0E6A0250D8A496EF00F001C002F012
:10010A0000C001F0006A0E860250D8A496EF00F0F3
:10011A0001C002F0016A0E960E880250D8B4A8EF08
:10012A0000F00E50035ED8A4D8A0ADEF00F0D8902E
:10013A0002BEB2EF00F0003601360236032E9DEF02
:10014A0000F0ADEF00F0010E0C6EC5DFB5EF00F068
:10015A00020E0C6E71DFB5EF00F0040E0C6E79DF43
:02016A00120081
:10016C000B820BAEC0EF00F00368026801680068F8
:08017C000A360232FF0E1200E8
:0C0184002E905AC05BF06CDF2E80120041
:080190000B6A0B86FF0E120042
:100198000B800BAED8EF00F0026A0AAEFF0E026EBB
:0C01A800016E006E0A360232FF0E1200DB
:1001B4000900F5CFE6FF0006FBE10106F9E11200B4
:1001C400FF0E2F6EFF0E306EFF0E316EFF0E326E7D
:1001D400C26A2D1C006E0050C116070EC012C08EDC
:0401E400C2801200C3
:1001E8000FD0800E556E19D0C00E556E16D0940ED5
:1001F800556E13D0D40E556E10D0800E556E0DD09E
:100208005550010AEEE05550020AEEE05550030A37
:10021800EEE05550040AEEE0F0D75604006E555053
:10022800002600C055F000C05BF018DF2E90596A18
:1002380059505724E96E000E5820EA6EEE520BE032
:1002480059505724E96E000E5820EA6EEECF5AF046
:0A02580095DF592AEDD72E80120021
:10026200939A939893909392939493968A9A8A9856
:100272008A968A948A928A90D8DED7DED6DE8A82DD
:100282008A808A8ACADE8A9AD0DE8A8AC6DE8A9AF8
:10029200CCDE8A8AC2DE8A9AC8DE8A908A8ABDDE6B
:1002A2008A9AC3DE8A8AB9DE8A9A8A928A868A8A78
:1002B200B4DE8A9ABADE8A968A808A8AAEDE8A9A00
:1002C2008A908A8AAADE8A9AB0DE8A8AA6DE8A9A08
:1002D2008A808A8AA2DE8A9AA8DE8A908A8A9DDE2B
:1002E2008A9A8A868A848A828A808A8A96DE8A9A08
:0602F2009CDE2E801200CC
:1002F800086A096A000E0762036401EF02F00250FF
:1003080006180A6E075003267E0ED8A092EF01F059
:10031800035ED8B005EF02F096EF01F0035ED8A0B7
:1003280009EF02F0028E068E02C00EF001C00BF03B
:1003380000C00DF000500402F4CF0CF0015005028B
:10034800F4CF00F0F3CF08F00402F3500C26F45079
:100358000822000E00220D500502F3500C26F4501E
:100368000822000E002202500402F3500826F4501E
:10037800002202500502016A000E0122F3500026F5
:10038800F45001220D500602F3500826F4500022C2
:10039800026A000E012202220B500602F3500026C8
:1003A800F4500122000E02220E500602F3500126DC
:1003B800F450022202BEE9EF01F008360036013699
:1003C80002360306D8B409EF02F0FCEF01F0D8803A
:1003D800800E08640030000E002201220222D8A0FC
:1003E800FCEF01F0023201320032034A05EF02F05D
:1003F8000AAE029E000E0BEF02F0010E6DDE0BEF4F
:1004080002F0020EAFDE0BEF02F0040E16DE120051
:100418000B6A0C6A0A6A0350D8B456EF02F0028ECF
:100428008E0E035E03BE1EEF02F0D8B41EEF02F07C
:100438005AEF02F0036C080E035CD8A035EF02F007
:10044800036E013602C001F0026A080E035CD8A0F0
:1004580035EF02F00136016A0350D8A4D8903FEF77
:1004680002F00350D8B43FEF02F0D89002320132C4
:10047800032E39EF02F00BBC01A04CEF02F0D8A01C
:100488004CEF02F0012AD8B4022A02BE69EF02F04A
:100498000AAE6EEF02F0021E011E012AD8B4022A2B
:1004A8006EEF02F0026A016A6EEF02F00B800BAE8B
:1004B80072EF02F0026A0AAE72EF02F0FF0E026EED
:1004C800016E0A36023272EF02F0010E0C6E60DE27
:1004D80074EF02F0000E0C6E74EF02F0FF0E0C6E5B
:0A04E8000150006E0250016E120078
:1004F200086A096A100E0C6E013408360936045077
:10050200085E0550D8A0053C095ED8B007D004505B
:1005120008260550D8B0053C0926D8900036013689
:060522000C2EEAD71200C6
:100528000050086E0150006E016A026A036A0B6A85
:100538000C6A960E036E0A6A00C001F008C000F04B
:08054800086A026AD6DD120008
:10055000C26A2D1C006E0050C116070EC012C08E5C
:1005600055C000F000360090003600900050C212D6
:10057000C280BDDDC282C2A201D0FDD7C4CF01F0CE
:0E058000006AC3500012000E0112C290120059
:10058E0000C008F00150006E016A026A036A0B6A2D
:10059E000C6A016A026A036A960E036E0A6A00AE5C
:1005AE00DFEF02F0081E001E082AD8B4002A0A8EB9
:1005BE0000C001F008C000F0086A026A97DD120060
:1005CE000450000A12E10550000A0FE10650000A1D
:1005DE000CE10750000A09E1FF0E006EFF0E016EDE
:1005EE007F0E026EFF0E036EA4D0086A096A0750D2
:1005FE00D8B492EF03F00350D8B496EF03F0025044
:10060E0006180A6E028E068E0E6A02C008F001C02F
:10061E000CF000C00DF004500D5E0550D8A0053C46
:10062E000C5E0650D8A0063C085E086A0C6A0D6A7D
:10063E00D8A029EF03F0D8900232013200320832EE
:10064E00010E0E6E0750035ED8A036EF03F07E0E3D
:10065E000E240326D8B09AEF03F03CEF03F07E0E83
:10066E000E240326D8A09EEF03F0180E0B6E0D3647
:10067E000C3608360036013602360E360450005E51
:10068E000550D8A0053C015E0650D8A0063C025E7F
:10069E0006340E120EA057EF03F00D8062EF03F03A
:1006AE00045000260550D8B0053C01260650D8B09F
:1006BE00062802260D900B2E3EEF03F088EF03F076
:1006CE00D8900036013602360E360450005E0550C4
:1006DE00D8A0053C015E0650D8A0063C025E06344A
:1006EE000E10010B0D26D8B00C2AD8B4082AD8A4A7
:1006FE0088EF03F008320C320D32032AD8B49AEF89
:10070E0003F00AAE089E0850026E0C50016E0D509A
:10071E00006EA0EF03F0010E34DDA0EF03F0020E29
:10072E00D8DCA0EF03F0040E1ADDA0EF03F0080EE4
:04073E0081DC120048
:10074200D6EC04F0476A486AF40E496E010E4A6E0E
:10075200E70E4B6E030E4C6E928492860B0EC16EA8
:1007620030DD7EDD010E5B6E7CDC0C0E5B6E79DCB7
:10077200010E556E060E566E210E576E000E586E05
:1007820032DD020E556E060E566E150E576E000EB7
:10079200586E29DD020E556EDADE00C047F001C048
:1007A20048F0030E556ED3DE00C053F001C054F082
:1007B20049C000F04AC001F0E9DE000E046EC00E2E
:1007C200056E7F0E066E880E076E00DF00C04DF0CC
:1007D20001C04EF002C04FF003C050F047C000F01D
:1007E20048C001F0A0DE4DC004F04EC005F04FC07D
:1007F20006F050C007F07FDD0EDE00C051F001C0F0
:1008020052F051C047F052C048F04BC000F04CC00B
:1008120001F0BCDE000E046EC00E056E7F0E066E89
:10082200880E076ED3DE00C04DF001C04EF002C04C
:100832004FF003C050F053C000F054C001F073DE1B
:100842004DC004F04EC005F04FC006F050C007F096
:1008520052DDE1DD00C04DF001C04EF0640E046EC9
:10086200000E056E51C000F052C001F041DE0A0ECA
:10087200046E000E056E3CDE08C000F009C001F0F7
:10088200300E002600C033F02E0E346E0A0E046EB7
:10089200000E056E51C000F052C001F029DE0A0EB2
:1008A200046E000E056E24DE08C000F009C001F0DF
:1008B200300E0024356E0A0E046E000E056E51C015
:1008C20000F052C001F014DE08C000F009C001F0CF
:1008D200300E0024366E376A640E046E000E056E0A
:1008E2004DC000F04EC001F003DE0A0E046E000E91
:1008F200056EFEDD08C000F009C001F0300E0026D2
:1009020000C03DF00A0E046E000E056E4DC000F0F0
:100912004EC001F0EDDD0A0E046E000E056EE8DD3C
:1009220008C000F009C001F0300E00243E6E2E0E09
:100932003F6E0A0E046E000E056E4DC000F04EC0F2
:1009420001F0D6DD08C000F009C001F0300E00242D
:10095200406E416A010E556E010E566E330E576E91
:10096200000E586E40DC020E556E010E566E3D0EA4
:10097200576E000E586E37DC340E0C6EF10E0D6E93
:100982000D2EFED70C2EFCD70000000003D7FFD798
:1009AC0010EE15F0190E006E010E016E920EF66E21
:0E09BC00090EF76E000EF86EDAEC00F0120075
:0C099200204320202020202020202000D6
:0C099E00205620202020202020202000B7
:0109AA00301C
:020000040030CA
:0E000000000C1F1EFF8381FF0FC00FE00F409A
:00000001FF
